{
  "contractName": "Escrow",
  "abi": [
    {
      "constant": true,
      "inputs": [],
      "name": "currentEscrow",
      "outputs": [
        {
          "name": "",
          "type": "uint256"
        }
      ],
      "payable": false,
      "stateMutability": "view",
      "type": "function"
    },
    {
      "constant": true,
      "inputs": [],
      "name": "stopped",
      "outputs": [
        {
          "name": "",
          "type": "bool"
        }
      ],
      "payable": false,
      "stateMutability": "view",
      "type": "function"
    },
    {
      "constant": true,
      "inputs": [],
      "name": "owner",
      "outputs": [
        {
          "name": "",
          "type": "address"
        }
      ],
      "payable": false,
      "stateMutability": "view",
      "type": "function"
    },
    {
      "inputs": [],
      "payable": false,
      "stateMutability": "nonpayable",
      "type": "constructor"
    },
    {
      "anonymous": false,
      "inputs": [
        {
          "indexed": false,
          "name": "buyerAddress",
          "type": "address"
        },
        {
          "indexed": false,
          "name": "sellerAddress",
          "type": "address"
        },
        {
          "indexed": false,
          "name": "amount",
          "type": "uint256"
        }
      ],
      "name": "LogEscrowCreated",
      "type": "event"
    },
    {
      "anonymous": false,
      "inputs": [
        {
          "indexed": false,
          "name": "voterAddress",
          "type": "address"
        },
        {
          "indexed": false,
          "name": "vote",
          "type": "bool"
        },
        {
          "indexed": false,
          "name": "id",
          "type": "uint256"
        }
      ],
      "name": "LogVote",
      "type": "event"
    },
    {
      "anonymous": false,
      "inputs": [
        {
          "indexed": false,
          "name": "withdrawAddress",
          "type": "address"
        },
        {
          "indexed": false,
          "name": "amount",
          "type": "uint256"
        },
        {
          "indexed": false,
          "name": "id",
          "type": "uint256"
        }
      ],
      "name": "LogWithdraw",
      "type": "event"
    },
    {
      "anonymous": false,
      "inputs": [
        {
          "indexed": false,
          "name": "transferAddress",
          "type": "address"
        },
        {
          "indexed": false,
          "name": "amount",
          "type": "uint256"
        },
        {
          "indexed": false,
          "name": "id",
          "type": "uint256"
        }
      ],
      "name": "LogTransfer",
      "type": "event"
    },
    {
      "constant": false,
      "inputs": [
        {
          "name": "_seller",
          "type": "address"
        }
      ],
      "name": "addEscrow",
      "outputs": [
        {
          "name": "",
          "type": "uint256"
        }
      ],
      "payable": true,
      "stateMutability": "payable",
      "type": "function"
    },
    {
      "constant": false,
      "inputs": [
        {
          "name": "value",
          "type": "bool"
        }
      ],
      "name": "setStopped",
      "outputs": [],
      "payable": false,
      "stateMutability": "nonpayable",
      "type": "function"
    },
    {
      "constant": true,
      "inputs": [
        {
          "name": "_id",
          "type": "uint256"
        }
      ],
      "name": "getEscrow",
      "outputs": [
        {
          "name": "buyer",
          "type": "address"
        },
        {
          "name": "seller",
          "type": "address"
        },
        {
          "name": "amount",
          "type": "uint256"
        },
        {
          "name": "buyerAgreement",
          "type": "bool"
        },
        {
          "name": "sellerAgreement",
          "type": "bool"
        },
        {
          "name": "buyerVote",
          "type": "bool"
        },
        {
          "name": "sellerVote",
          "type": "bool"
        },
        {
          "name": "isOpen",
          "type": "bool"
        },
        {
          "name": "isWithdraw",
          "type": "bool"
        }
      ],
      "payable": false,
      "stateMutability": "view",
      "type": "function"
    },
    {
      "constant": false,
      "inputs": [
        {
          "name": "_id",
          "type": "uint256"
        },
        {
          "name": "_vote",
          "type": "bool"
        }
      ],
      "name": "vote",
      "outputs": [
        {
          "name": "",
          "type": "bool"
        }
      ],
      "payable": false,
      "stateMutability": "nonpayable",
      "type": "function"
    },
    {
      "constant": false,
      "inputs": [
        {
          "name": "_id",
          "type": "uint256"
        }
      ],
      "name": "withdraw",
      "outputs": [
        {
          "name": "",
          "type": "bool"
        }
      ],
      "payable": false,
      "stateMutability": "nonpayable",
      "type": "function"
    },
    {
      "constant": false,
      "inputs": [
        {
          "name": "_id",
          "type": "uint256"
        },
        {
          "name": "_address",
          "type": "address"
        }
      ],
      "name": "transferWhenBlocked",
      "outputs": [
        {
          "name": "",
          "type": "bool"
        }
      ],
      "payable": false,
      "stateMutability": "nonpayable",
      "type": "function"
    }
  ],
  "bytecode": "0x6080604052606360035534801561001557600080fd5b506000600181905550336000806101000a81548173ffffffffffffffffffffffffffffffffffffffff021916908373ffffffffffffffffffffffffffffffffffffffff1602179055506000600460006101000a81548160ff021916908315150217905550611db5806100886000396000f3fe608060405260043610610099576000357c0100000000000000000000000000000000000000000000000000000000900463ffffffff1680632e1a7d4d1461009e578063357c270b146100f15780633a6441e01461016457806375f12b211461018f5780637d19e596146101be5780638da5cb5b146102b5578063c9d27afe1461030c578063cc224d441461036b578063d50e829e146103c3575b600080fd5b3480156100aa57600080fd5b506100d7600480360360208110156100c157600080fd5b8101908080359060200190929190505050610400565b604051808215151515815260200191505060405180910390f35b3480156100fd57600080fd5b5061014a6004803603604081101561011457600080fd5b8101908080359060200190929190803573ffffffffffffffffffffffffffffffffffffffff169060200190929190505050610ae3565b604051808215151515815260200191505060405180910390f35b34801561017057600080fd5b5061017961120c565b6040518082815260200191505060405180910390f35b34801561019b57600080fd5b506101a4611212565b604051808215151515815260200191505060405180910390f35b3480156101ca57600080fd5b506101f7600480360360208110156101e157600080fd5b8101908080359060200190929190505050611225565b604051808a73ffffffffffffffffffffffffffffffffffffffff1673ffffffffffffffffffffffffffffffffffffffff1681526020018973ffffffffffffffffffffffffffffffffffffffff1673ffffffffffffffffffffffffffffffffffffffff168152602001888152602001871515151581526020018615151515815260200185151515158152602001841515151581526020018315151515815260200182151515158152602001995050505050505050505060405180910390f35b3480156102c157600080fd5b506102ca611433565b604051808273ffffffffffffffffffffffffffffffffffffffff1673ffffffffffffffffffffffffffffffffffffffff16815260200191505060405180910390f35b34801561031857600080fd5b506103516004803603604081101561032f57600080fd5b8101908080359060200190929190803515159060200190929190505050611458565b604051808215151515815260200191505060405180910390f35b6103ad6004803603602081101561038157600080fd5b81019080803573ffffffffffffffffffffffffffffffffffffffff1690602001909291905050506118d8565b6040518082815260200191505060405180910390f35b3480156103cf57600080fd5b506103fe600480360360208110156103e657600080fd5b81019080803515159060200190929190505050611c22565b005b60008161040b611d29565b6002600083815260200190815260200160002060a060405190810160405290816000820160009054906101000a900473ffffffffffffffffffffffffffffffffffffffff1673ffffffffffffffffffffffffffffffffffffffff1673ffffffffffffffffffffffffffffffffffffffff1681526020016001820160009054906101000a900473ffffffffffffffffffffffffffffffffffffffff1673ffffffffffffffffffffffffffffffffffffffff1673ffffffffffffffffffffffffffffffffffffffff168152602001600282015481526020016005820160009054906101000a900460ff161515151581526020016005820160019054906101000a900460ff161515151581525050905080606001511515156105b8576040517f08c379a00000000000000000000000000000000000000000000000000000000081526004018080602001828103825260258152602001807f74686520657363726f77206d75737420626520636c6f73656420746f2077697481526020017f686472617700000000000000000000000000000000000000000000000000000081525060400191505060405180910390fd5b836105c1611d29565b6002600083815260200190815260200160002060a060405190810160405290816000820160009054906101000a900473ffffffffffffffffffffffffffffffffffffffff1673ffffffffffffffffffffffffffffffffffffffff1673ffffffffffffffffffffffffffffffffffffffff1681526020016001820160009054906101000a900473ffffffffffffffffffffffffffffffffffffffff1673ffffffffffffffffffffffffffffffffffffffff1673ffffffffffffffffffffffffffffffffffffffff168152602001600282015481526020016005820160009054906101000a900460ff161515151581526020016005820160019054906101000a900460ff16151515158152505090508060800151151515610748576040517f08c379a000000000000000000000000000000000000000000000000000000000815260040180806020018281038252601f8152602001807f74686520657363726f7720697320616c72656164792077697468647261776e0081525060200191505060405180910390fd5b60006002600088815260200190815260200160002090508060010160009054906101000a900473ffffffffffffffffffffffffffffffffffffffff1673ffffffffffffffffffffffffffffffffffffffff163373ffffffffffffffffffffffffffffffffffffffff16141515610826576040517f08c379a000000000000000000000000000000000000000000000000000000000815260040180806020018281038252601d8152602001807f7468652073656e646572206d757374206265207468652073656c6c657200000081525060200191505060405180910390fd5b8060030160008260000160009054906101000a900473ffffffffffffffffffffffffffffffffffffffff1673ffffffffffffffffffffffffffffffffffffffff1673ffffffffffffffffffffffffffffffffffffffff16815260200190815260200160002060009054906101000a900460ff16801561091457508060030160008260010160009054906101000a900473ffffffffffffffffffffffffffffffffffffffff1673ffffffffffffffffffffffffffffffffffffffff1673ffffffffffffffffffffffffffffffffffffffff16815260200190815260200160002060009054906101000a900460ff165b15156109ae576040517f08c379a00000000000000000000000000000000000000000000000000000000081526004018080602001828103825260338152602001807f7468657265206d75737420626520616e2061677265656d656e7420626574776581526020017f656e20627579657220616e642073656c6c65720000000000000000000000000081525060400191505060405180910390fd5b8060010160009054906101000a900473ffffffffffffffffffffffffffffffffffffffff1673ffffffffffffffffffffffffffffffffffffffff166108fc82600201549081150290604051600060405180830381858888f19350505050158015610a1c573d6000803e3d6000fd5b5060018160050160016101000a81548160ff0219169083151502179055507fda9a10d7b992511ddadbfc7ff712c1424ce2058bbcdac8c9876d6f8de590d43f8160010160009054906101000a900473ffffffffffffffffffffffffffffffffffffffff16826002015489604051808473ffffffffffffffffffffffffffffffffffffffff1673ffffffffffffffffffffffffffffffffffffffff168152602001838152602001828152602001935050505060405180910390a1600195505050505050919050565b600082610aee611d29565b6002600083815260200190815260200160002060a060405190810160405290816000820160009054906101000a900473ffffffffffffffffffffffffffffffffffffffff1673ffffffffffffffffffffffffffffffffffffffff1673ffffffffffffffffffffffffffffffffffffffff1681526020016001820160009054906101000a900473ffffffffffffffffffffffffffffffffffffffff1673ffffffffffffffffffffffffffffffffffffffff1673ffffffffffffffffffffffffffffffffffffffff168152602001600282015481526020016005820160009054906101000a900460ff161515151581526020016005820160019054906101000a900460ff16151515158152505090508060600151151515610c9b576040517f08c379a00000000000000000000000000000000000000000000000000000000081526004018080602001828103825260258152602001807f74686520657363726f77206d75737420626520636c6f73656420746f2077697481526020017f686472617700000000000000000000000000000000000000000000000000000081525060400191505060405180910390fd5b8484610ca5611d29565b6002600084815260200190815260200160002060a060405190810160405290816000820160009054906101000a900473ffffffffffffffffffffffffffffffffffffffff1673ffffffffffffffffffffffffffffffffffffffff1673ffffffffffffffffffffffffffffffffffffffff1681526020016001820160009054906101000a900473ffffffffffffffffffffffffffffffffffffffff1673ffffffffffffffffffffffffffffffffffffffff1673ffffffffffffffffffffffffffffffffffffffff168152602001600282015481526020016005820160009054906101000a900460ff161515151581526020016005820160019054906101000a900460ff1615151515815250509050806000015173ffffffffffffffffffffffffffffffffffffffff168273ffffffffffffffffffffffffffffffffffffffff161480610e1f5750806020015173ffffffffffffffffffffffffffffffffffffffff168273ffffffffffffffffffffffffffffffffffffffff16145b1515610eb9576040517f08c379a00000000000000000000000000000000000000000000000000000000081526004018080602001828103825260228152602001807f7468652073656e646572206d757374206265206275796572206f722073656c6c81526020017f657200000000000000000000000000000000000000000000000000000000000081525060400191505060405180910390fd5b6000809054906101000a900473ffffffffffffffffffffffffffffffffffffffff1673ffffffffffffffffffffffffffffffffffffffff163373ffffffffffffffffffffffffffffffffffffffff16141515610fa3576040517f08c379a000000000000000000000000000000000000000000000000000000000815260040180806020018281038252602c8152602001807f6f6e6c79206f776e65722069732061626c6520746f20706572666f726d20746881526020017f6973206f7065726174696f6e000000000000000000000000000000000000000081525060400191505060405180910390fd5b6000600260008a815260200190815260200160002090508060030160008260000160009054906101000a900473ffffffffffffffffffffffffffffffffffffffff1673ffffffffffffffffffffffffffffffffffffffff1673ffffffffffffffffffffffffffffffffffffffff16815260200190815260200160002060009054906101000a900460ff1615806110a957508060030160008260010160009054906101000a900473ffffffffffffffffffffffffffffffffffffffff1673ffffffffffffffffffffffffffffffffffffffff1673ffffffffffffffffffffffffffffffffffffffff16815260200190815260200160002060009054906101000a900460ff16155b151561111d576040517f08c379a000000000000000000000000000000000000000000000000000000000815260040180806020018281038252601e8152602001807f7468657265206d757374206e6f7420626520616e2061677265656d656e74000081525060200191505060405180910390fd5b8773ffffffffffffffffffffffffffffffffffffffff166108fc82600201549081150290604051600060405180830381858888f19350505050158015611167573d6000803e3d6000fd5b5060018160050160016101000a81548160ff0219169083151502179055507f18b0800c80490f5a2cdb8878912fa0744819cf79cb6bda0573399ceee459b66a8882600201548b604051808473ffffffffffffffffffffffffffffffffffffffff1673ffffffffffffffffffffffffffffffffffffffff168152602001838152602001828152602001935050505060405180910390a16001965050505050505092915050565b60015481565b600460009054906101000a900460ff1681565b600080600080600080600080600080600260008c815260200190815260200160002090508060000160009054906101000a900473ffffffffffffffffffffffffffffffffffffffff1699508060010160009054906101000a900473ffffffffffffffffffffffffffffffffffffffff169850806002015497508060030160008b73ffffffffffffffffffffffffffffffffffffffff1673ffffffffffffffffffffffffffffffffffffffff16815260200190815260200160002060009054906101000a900460ff1696508060030160008a73ffffffffffffffffffffffffffffffffffffffff1673ffffffffffffffffffffffffffffffffffffffff16815260200190815260200160002060009054906101000a900460ff1695508060040160008b73ffffffffffffffffffffffffffffffffffffffff1673ffffffffffffffffffffffffffffffffffffffff16815260200190815260200160002060009054906101000a900460ff1694508060040160008a73ffffffffffffffffffffffffffffffffffffffff1673ffffffffffffffffffffffffffffffffffffffff16815260200190815260200160002060009054906101000a900460ff1693508060050160009054906101000a900460ff1692508060050160019054906101000a900460ff169150898989898989898989995099509950995099509950995099509950509193959799909294969850565b6000809054906101000a900473ffffffffffffffffffffffffffffffffffffffff1681565b60008233611464611d29565b6002600084815260200190815260200160002060a060405190810160405290816000820160009054906101000a900473ffffffffffffffffffffffffffffffffffffffff1673ffffffffffffffffffffffffffffffffffffffff1673ffffffffffffffffffffffffffffffffffffffff1681526020016001820160009054906101000a900473ffffffffffffffffffffffffffffffffffffffff1673ffffffffffffffffffffffffffffffffffffffff1673ffffffffffffffffffffffffffffffffffffffff168152602001600282015481526020016005820160009054906101000a900460ff161515151581526020016005820160019054906101000a900460ff1615151515815250509050806000015173ffffffffffffffffffffffffffffffffffffffff168273ffffffffffffffffffffffffffffffffffffffff1614806115de5750806020015173ffffffffffffffffffffffffffffffffffffffff168273ffffffffffffffffffffffffffffffffffffffff16145b1515611678576040517f08c379a00000000000000000000000000000000000000000000000000000000081526004018080602001828103825260228152602001807f7468652073656e646572206d757374206265206275796572206f722073656c6c81526020017f657200000000000000000000000000000000000000000000000000000000000081525060400191505060405180910390fd5b6000600260008881526020019081526020016000209050858160030160003373ffffffffffffffffffffffffffffffffffffffff1673ffffffffffffffffffffffffffffffffffffffff16815260200190815260200160002060006101000a81548160ff02191690831515021790555060018160040160003373ffffffffffffffffffffffffffffffffffffffff1673ffffffffffffffffffffffffffffffffffffffff16815260200190815260200160002060006101000a81548160ff0219169083151502179055508060040160008260010160009054906101000a900473ffffffffffffffffffffffffffffffffffffffff1673ffffffffffffffffffffffffffffffffffffffff1673ffffffffffffffffffffffffffffffffffffffff16815260200190815260200160002060009054906101000a900460ff16801561183057508060040160008260000160009054906101000a900473ffffffffffffffffffffffffffffffffffffffff1673ffffffffffffffffffffffffffffffffffffffff1673ffffffffffffffffffffffffffffffffffffffff16815260200190815260200160002060009054906101000a900460ff165b156118535760008160050160006101000a81548160ff0219169083151502179055505b7f33756534de162d89bcd9858cf7ce9e7b00e56d9b7785a1b19d6fb0498d49c832338789604051808473ffffffffffffffffffffffffffffffffffffffff1673ffffffffffffffffffffffffffffffffffffffff16815260200183151515158152602001828152602001935050505060405180910390a1600194505050505092915050565b600060035434111515611979576040517f08c379a00000000000000000000000000000000000000000000000000000000081526004018080602001828103825260258152602001807f76616c7565206d7573742062652067726561746572207468616e206d696e206181526020017f6d6f756e7400000000000000000000000000000000000000000000000000000081525060400191505060405180910390fd5b600460009054906101000a900460ff16151515611a24576040517f08c379a00000000000000000000000000000000000000000000000000000000081526004018080602001828103825260248152602001807f74686520636f6e74726163742069732073746f7070656420627920746865206f81526020017f776e65720000000000000000000000000000000000000000000000000000000081525060400191505060405180910390fd5b600180540160018190555060a0604051908101604052803373ffffffffffffffffffffffffffffffffffffffff1681526020018373ffffffffffffffffffffffffffffffffffffffff1681526020013481526020016001151581526020016000151581525060026000600154815260200190815260200160002060008201518160000160006101000a81548173ffffffffffffffffffffffffffffffffffffffff021916908373ffffffffffffffffffffffffffffffffffffffff16021790555060208201518160010160006101000a81548173ffffffffffffffffffffffffffffffffffffffff021916908373ffffffffffffffffffffffffffffffffffffffff1602179055506040820151816002015560608201518160050160006101000a81548160ff02191690831515021790555060808201518160050160016101000a81548160ff0219169083151502179055509050507f32ae018a4171c64e22887c2e3ee42ff625062a7bf356e154cee317ad70153e3d338334604051808473ffffffffffffffffffffffffffffffffffffffff1673ffffffffffffffffffffffffffffffffffffffff1681526020018373ffffffffffffffffffffffffffffffffffffffff1673ffffffffffffffffffffffffffffffffffffffff168152602001828152602001935050505060405180910390a16001549050919050565b6000809054906101000a900473ffffffffffffffffffffffffffffffffffffffff1673ffffffffffffffffffffffffffffffffffffffff163373ffffffffffffffffffffffffffffffffffffffff16141515611d0c576040517f08c379a000000000000000000000000000000000000000000000000000000000815260040180806020018281038252602c8152602001807f6f6e6c79206f776e65722069732061626c6520746f20706572666f726d20746881526020017f6973206f7065726174696f6e000000000000000000000000000000000000000081525060400191505060405180910390fd5b80600460006101000a81548160ff02191690831515021790555050565b60a060405190810160405280600073ffffffffffffffffffffffffffffffffffffffff168152602001600073ffffffffffffffffffffffffffffffffffffffff16815260200160008152602001600015158152602001600015158152509056fea165627a7a7230582066c33cbc840a16bc903bd75753be0a7f1a257a73451186219088d7b9289f9c870029",
  "source": "pragma solidity ^0.5.0;\n\n/// @title Escrow\n/// @author Nestor R. Escoto\n/// @notice This contract allow the implementation of Escrow payments trough Ethereum\n\ncontract Escrow {\n  /// @author Nestor R. Escoto\n\n  /*\n    Escrow Struct\n  */\n  struct EscrowPayment {\n    address buyer;\n    address payable seller;\n    uint256 amount; //In weis\n    mapping(address => bool) agreement;\n    mapping(address => bool) vote;\n    bool isOpen;\n    bool isWithdraw;\n  }\n  /*\n    Local Variables\n  */\n  address public owner;\n  uint public currentEscrow;\n  mapping(uint => EscrowPayment) private escrows;\n  uint private MIN_AMOUNT = 99;\n  bool public stopped;\n\n  /*\n    Modifiers\n  */\n\n  /// @notice Checks if msg.value is greater than the Min Amount allowed\n  modifier checkMin() {\n    require(msg.value > MIN_AMOUNT, \"value must be greater than min amount\");\n    _;\n  }\n\n  /// @notice Only allow to buyer/seller to perform certain operation\n  modifier onlyBuyerSeller(uint _id, address _address) {\n    EscrowPayment memory myEscrow = escrows[_id];\n    require(_address == myEscrow.buyer || _address == myEscrow.seller, \"the sender must be buyer or seller\");\n    _;\n  }\n\n  /// @notice Checks if the Escrow is open\n  modifier escrowIsOpen(uint _id){\n    EscrowPayment memory myEscrow = escrows[_id];\n    require(!myEscrow.isOpen, \"the escrow must be closed to withdraw\");\n    _;\n  }\n\n  /// @notice Checks if the Escrow is withdrawn\n  modifier isWithDrawn(uint _id){\n    EscrowPayment memory myEscrow = escrows[_id];\n    require(!myEscrow.isWithdraw, \"the escrow is already withdrawn\");\n    _;\n  }\n\n  /// @notice Checks if the Contract is Stopped or not\n  modifier isContractOpen(){\n    require(!stopped, \"the contract is stopped by the owner\");\n    _;\n  }\n\n\n  /// @notice Checks if the msg.sender is the owner\n  modifier restricted(){\n    require(msg.sender == owner, \"only owner is able to perform this operation\");\n    _;\n  }\n\n  /// @notice Logs when a new Escrow is created\n  event LogEscrowCreated(address buyerAddress, address sellerAddress, uint amount);\n\n  /// @notice Logs when a new vote is created\n  event LogVote(address voterAddress, bool vote, uint id);\n\n  /// @notice Logs when a new vote is created\n  event LogWithdraw(address withdrawAddress, uint amount, uint id);\n\n  /// @notice Logs when a new vote is created\n  event LogTransfer(address transferAddress, uint amount, uint id);\n\n\n  /// @notice Contract's Constructor, it will set the msg.sender as owner\n  constructor() public {\n    currentEscrow = 0;\n    owner = msg.sender;\n    stopped = false;\n  }\n\n  /// @notice Creates a new Escrow Payment into the contract\n  /// @param _seller The address of the seller\n  /// @return id of the Escrow Contract just created\n  function addEscrow(address payable _seller) public payable checkMin isContractOpen returns (uint) {\n    currentEscrow = currentEscrow + 1;\n    escrows[currentEscrow] = EscrowPayment({ buyer: msg.sender, seller: _seller, amount: msg.value, isOpen: true, isWithdraw: false});\n    emit LogEscrowCreated(msg.sender, _seller, msg.value);\n    return currentEscrow;\n  }\n\n  /// @notice Set a value for stopped variable\n  /// @param value The value for stopped\n  function setStopped (bool value) public restricted {\n    stopped = value;\n  }\n\n  /// @notice Returns a specific Escrow based on the received id\n  /// @param _id Id of the Escrow Payment\n  /// @return escrow structure of the matched Escrow Payment\n  function getEscrow(uint _id) public view returns(\n    address buyer,\n    address seller,\n    uint amount,\n    bool buyerAgreement,\n    bool sellerAgreement,\n    bool buyerVote,\n    bool sellerVote,\n    bool isOpen,\n    bool isWithdraw){\n      EscrowPayment storage myEscrow = escrows[_id];\n      buyer = myEscrow.buyer;\n      seller = myEscrow.seller;\n      amount = myEscrow.amount;\n      buyerAgreement = myEscrow.agreement[buyer];\n      sellerAgreement = myEscrow.agreement[seller];\n      buyerVote = myEscrow.vote[buyer];\n      sellerVote = myEscrow.vote[seller];\n      isOpen = myEscrow.isOpen;\n      isWithdraw = myEscrow.isWithdraw;\n      return (buyer, seller, amount, buyerAgreement, sellerAgreement, buyerVote, sellerVote, isOpen, isWithdraw);\n  }\n\n  /// @notice Performs a vote from the involved parties in the Escrow Payment\n  /// @param _id Id of the Escrow Payment\n  /// @param _vote Boolean value to represent the vote\n  /// @return true if everything went well\n  function vote(uint _id, bool _vote) public onlyBuyerSeller(_id, msg.sender) returns (bool){\n    EscrowPayment storage myEscrow = escrows[_id];\n    myEscrow.agreement[msg.sender] = _vote;\n    myEscrow.vote[msg.sender] = true;\n    //If both seller and buyer already voted the payment should be closed\n    if(myEscrow.vote[myEscrow.seller] && myEscrow.vote[myEscrow.buyer]){\n      myEscrow.isOpen = false;\n    }\n    emit LogVote(msg.sender, _vote, _id);\n    return true;\n  }\n\n  /// @notice Allows to withdraw the money from the escrow payment\n  /// @param _id Id of the Escrow Payment\n  /// @return true if everything went well\n  function withdraw(uint _id) public escrowIsOpen(_id) isWithDrawn(_id) returns (bool){\n    EscrowPayment storage myEscrow = escrows[_id];\n    require(msg.sender == myEscrow.seller, \"the sender must be the seller\");\n    require(myEscrow.agreement[myEscrow.buyer] && myEscrow.agreement[myEscrow.seller], \"there must be an agreement between buyer and seller\");\n    myEscrow.seller.transfer(myEscrow.amount);\n    myEscrow.isWithdraw = true;\n    emit LogWithdraw(myEscrow.seller, myEscrow.amount, _id);\n    return true;\n  }\n\n  /// @notice Allows to transfer a blocked escrow payment to the buyer or seller\n  /// @param _id Id of the Escrow Payment\n  /// @param _address Recipient of transaction\n  /// @return true if everything went well\n  function transferWhenBlocked(uint _id, address payable _address) public\n  escrowIsOpen(_id)\n  onlyBuyerSeller(_id, _address)\n  restricted() returns (bool){\n    EscrowPayment storage myEscrow = escrows[_id];\n    require(!myEscrow.agreement[myEscrow.buyer] || !myEscrow.agreement[myEscrow.seller], \"there must not be an agreement\");\n    _address.transfer(myEscrow.amount);\n    myEscrow.isWithdraw = true;\n    emit LogTransfer(_address, myEscrow.amount, _id);\n    return true;\n  }\n}\n",
  "sourcePath": "C:/Users/nescoto/Documents/projects/consensys-bootcamp/escrow-campaing-maker/contracts/Escrow.sol",
  "compiler": {
    "name": "solc",
    "version": "0.5.0+commit.1d4f565a.Emscripten.clang"
  },
  "schemaVersion": "3.0.9",
  "updatedAt": "2019-07-15T18:20:53.069Z",
  "devdoc": {
    "author": "Nestor R. Escoto",
    "methods": {
      "addEscrow(address)": {
        "params": {
          "_seller": "The address of the seller"
        },
        "return": "id of the Escrow Contract just created"
      },
      "getEscrow(uint256)": {
        "params": {
          "_id": "Id of the Escrow Payment"
        },
        "return": "escrow structure of the matched Escrow Payment"
      },
      "setStopped(bool)": {
        "params": {
          "value": "The value for stopped"
        }
      },
      "transferWhenBlocked(uint256,address)": {
        "params": {
          "_address": "Recipient of transaction",
          "_id": "Id of the Escrow Payment"
        },
        "return": "true if everything went well"
      },
      "vote(uint256,bool)": {
        "params": {
          "_id": "Id of the Escrow Payment",
          "_vote": "Boolean value to represent the vote"
        },
        "return": "true if everything went well"
      },
      "withdraw(uint256)": {
        "params": {
          "_id": "Id of the Escrow Payment"
        },
        "return": "true if everything went well"
      }
    },
    "title": "Escrow"
  },
  "userdoc": {
    "methods": {
      "addEscrow(address)": {
        "notice": "Creates a new Escrow Payment into the contract"
      },
      "constructor": "Contract's Constructor, it will set the msg.sender as owner",
      "getEscrow(uint256)": {
        "notice": "Returns a specific Escrow based on the received id"
      },
      "setStopped(bool)": {
        "notice": "Set a value for stopped variable"
      },
      "transferWhenBlocked(uint256,address)": {
        "notice": "Allows to transfer a blocked escrow payment to the buyer or seller"
      },
      "vote(uint256,bool)": {
        "notice": "Performs a vote from the involved parties in the Escrow Payment"
      },
      "withdraw(uint256)": {
        "notice": "Allows to withdraw the money from the escrow payment"
      }
    },
    "notice": "This contract allow the implementation of Escrow payments trough Ethereum"
  }
}